S01B000041744D3132385F52544F535F4C6564425F56312E7372656329
S113000045C0000060C000005EC000005CC000008D
S11300105AC0000058C0000056C0000054C0000080
S113002052C0000050C000004EC000004CC0000090
S1130030DCC1000048C0000046C0000044C000000D
S113004042C0000040C000003EC000003CC00000B0
S11300503AC0000038C0000036C0000034C00000C0
S113006032C0000030C000002EC000002CC00000D0
S11300702AC0000028C0000026C0000024C00000E0
S113008022C0000020C000001EC0000011241FBEBA
S1130090CFEFD0E1DEBFCDBF11E0A0E0B1E0E4E2FC
S11300A0FAE000E00BBF02C007900D92A031B10747
S11300B0D9F72EE0A0E1B1E001C01D92A33FB20741
S11300C0E1F71BD0ADC49CCFCFEFC8BB2FEF89E6BF
S11300D098E1215080409040E1F700C000002DD10C
S11300E0F4CF18BA2FEF89E698E121508040904070
S11300F0E1F700C0000021D1F4CF1CD0A12CB12C19
S1130100C12CD12CE12CF12C01E020E030E045E5BC
S113011050E062E071E084E690E0B5D102E020E0D6
S113012030E045E550E066E071E081E790E0ABD176
S11301308AD2FFCF8FEF87BB0895FC010396928389
S113014081832FEF3FEF34832383968385839087C6
S1130150878310820895FC01118610860895CF9339
S1130160DF93FC01DB0121813281E9018A819B81DA
S113017013969C938E9312978181928115969C93EA
S11301808E9314978A819B81EC017D836C83E901B2
S11301907B836A83728361831996FC93EE93189729
S11301A080818F5F8083DF91CF910895FC01A281CC
S11301B0B3818481958115969C938E931497A48121
S11301C0B5818281938113969C938E931297A08517
S11301D0B18511968D919C9112978E179F0731F4DA
S11301E08481958112969C938E9311971186108623
S11301F08C9181508C93089531E1FC0130833197C7
S113020022E220833197A3E3A0833197608331975F
S1130210708331971082319760E860833197108240
S1130220319762E06083319763E06083319764E0E3
S11302306083319765E06083319766E0608331972E
S113024067E06083319768E06083319769E0608399
S1130250319760E1608331973083319732E13083A5
S1130260319733E13083319734E13083319735E18D
S11302703083319736E13083319737E130833197DA
S113028038E13083319739E13083319730E230837C
S1130290319731E2308331972083319723E22083F1
S11302A03197408331975083319726E220833197E9
S11302B027E22083319728E22083319729E22083A3
S11302C0319720E32083319721E320838697089593
S11302D01BBC8CE78ABD8BE08EBD87B7806187BF6E
S11302E0A091F10EB091F20ECD91CDBFDD91DEBFA4
S11302F0FF91EF91DF91CF91BF91AF919F918F913A
S11303007F916F915F914F913F912F911F910F9129
S1130310FF90EF90DF90CF90BF90AF909F908F9021
S11303207F906F905F904F903F902F901F900F9011
S11303300FBE0F90089581E008950F920FB6F894C0
S11303400F921F9211242F923F924F925F926F92BD
S11303507F928F929F92AF92BF92CF92DF92EF9251
S1130360FF920F931F932F933F934F935F936F933A
S11303707F938F939F93AF93BF93CF93DF93EF9329
S1130380FF93A091F10EB091F20E0DB60D920EB640
S11303900D92D3D2A091F10EB091F20ECD91CDBFBA
S11303A0DD91DEBFFF91EF91DF91CF91BF91AF91CE
S11303B09F918F917F916F915F914F913F912F9179
S11303C01F910F91FF90EF90DF90CF90BF90AF906F
S11303D09F908F907F906F905F904F903F902F9061
S11303E01F900F900FBE0F9008951F920F920FB69B
S11303F00F9211240BB60F922F933F934F935F9359
S11304006F937F938F939F93AF93BF93EF93FF93D8
S113041049D1FF91EF91BF91AF919F918F917F91BE
S11304206F915F914F913F912F910F900BBE0F9061
S11304300FBE0F901F901895CF93DF93EC012CD132
S113044040911001509111019E01240F351F2C3A47
S11304508DE0380758F44217530758F4EA01CE5E8A
S1130460DE4F309311012093100105C0C0E0D0E0AD
S113047002C0C0E0D0E0D7D1CE01DF91CF91089582
S113048008955BDFFECF4F925F926F927F928F92BF
S11304909F92AF92BF92CF92DF92EF92FF920F930F
S11304A0CF93DF934C013B015A01290181E290E093
S11304B0C3DFEC01009709F49BC0C114D10409F017
S11304C093C0C501B9DF988F8F8B009719F4CE01C3
S11304D0D7DF8EC0A50165EA70E08CD281E0A81A4E
S11304E0B1088F89988DA80EB91E48E050E0B30179
S11304F0CE01499686D218A21E8A6E01E2E0CE0E83
S1130500D11CC60128DECE010C9625DED987C8870A
S113051081E090E09D878C87DB8BCA8BA201B401BC
S1130520C5016ADE99838883E114F10419F0F701A7
S1130530D183C0830FB6F8940F928091C80E8F5F59
S11305408093C80E8091F10E9091F20E892B49F49C
S1130550D093F20EC093F10E8091C80E813081F4D5
S113056049C08091C30E81110BC0E091F10EF0914E
S1130570F20E8689081720F0D093F20EC093F10E84
S11305808E899091C50E981710F48093C50E9091A2
S1130590BE0E9F5F9093BE0E9091C40E981710F4F8
S11305A08093C40E90E09C01220F331F220F331F4F
S11305B0220F331F820F931FB6018851914FCFDD55
S11305C00F900FBE8091C30E882351F0E091F10E7D
S11305D0F091F20E8689801728F4AFDE81E023C003
S11305E081E021C081E01FC0D88ECF8AC60172CFBE
S11305F08FEF19C088EE9EE0A0DD8FED9EE09DDDBB
S113060086ED9EE09ADD89EC9EE097DD8FED9EE01D
S11306109093D50E8093D40E86ED9EE09093D30EE6
S11306208093D20EADCFDF91CF910F91FF90EF90D9
S1130630DF90CF90BF90AF909F908F907F906F90FE
S11306405F904F900895AF92BF92CF92DF92EF9256
S1130650FF920F93A12CB12CC12CD12CE12CF12CA5
S113066000E020E030E045E550E06BE071E081E43B
S113067092E009DF813041F4F8948093C30E109224
S1130680C70E1092C60E24DE0F91FF90EF90DF90FC
S1130690CF90BF90AF9008958091C20E8F5F8093EA
S11306A0C20E08950F931F93CF93DF938091C20ED0
S11306B08111AFC08091C60E9091C70E01969093A0
S11306C0C70E8093C60E8091C60E9091C70E892BDB
S11306D099F58091D40E9091D50E2091D20E30913F
S11306E0D30E3093D50E2093D40E9093D30E8093D3
S11306F0D20E8091BF0E8F5F8093BF0EE091D40E17
S1130700F091D50E8081811107C08FEF9FEF9093F8
S113071001018093000110C0E091D40EF091D50E38
S11307200580F681E02D0680F781E02D828193819A
S113073090930101809300012091C60E3091C70E61
S113074080910001909101012817390708F466C0CF
S1130750E091D40EF091D50E8081882399F0E09138
S1130760D40EF091D50E0580F681E02DC681D78197
S11307708A819B812091C60E3091C70E28173907B4
S1130780F8F419C08FEF9FEF90930101809300015B
S113079045C0E091D40EF091D50E0580F681E02D90
S11307A0C681D7818A819B812091C60E3091C70E64
S11307B02817390728F490930101809300012EC073
S11307C08E010E5F1F4FC801F1DC8C899D89892B36
S11307D019F0CE010C96EADC8E899091C40E98171C
S11307E010F48093C40E90E09C01220F331F220F5B
S11307F0331F220F331F820F931FB8018851914F6B
S1130800AEDCE091D40EF091D50E80818111C1CF80
S1130810B9CF8091C10E8F5F8093C10EDF91CF91CC
S11308201F910F910895AF92BF92CF92DF92EF92F2
S1130830FF920F931F93CF93DF930FB6F8940F9209
S11308408091C20E81508093C20E8091C20E81119C
S113085062C08091C80E882309F45FC0B12C0F2EAA
S1130860F9ECEF2EFEE0FF2EF02D0F2EFEECCF2E36
S1130870FEE0DF2EF02DAA24A3942BC0D601ED9127
S1130880FC91C681D781CE010C9690DC8E010E5F5F
S11308901F4FC8018BDC8E899091C40E981710F4F9
S11308A08093C40E90E09C01220F331F220F331F4C
S11308B0220F331F820F931FB8018851914F4FDCD1
S11308C0E091F10EF091F20E9E898689981708F056
S11308D0BA2CF70180818111D1CF8091C10E882378
S11308E071F08091C10E882351F0DCDE8091C10E3D
S11308F081508093C10E8091C10E8111F6CFF1E039
S1130900BF1621F08091C00E813049F41092C00EC0
S113091014DD81E005C080E003C080E001C080E018
S11309200F900FBEDF91CF911F910F91FF90EF9029
S1130930DF90CF90BF90AF9008958091C20E811147
S113094013C08091C40E90E0FC01EE0FFF1FEE0F68
S1130950FF1FEE0FFF1F8E0F9F1FFC01E851F14F89
S11309608081882329F01BC081E08093C00E089504
S11309708091C40E81508093C40E8091C40E90E087
S1130980FC01EE0FFF1FEE0FFF1FEE0FFF1F8E0F78
S11309909F1FFC01E851F14F8081882349F3E091C6
S11309A0C40EF0E0CF01880F991F880F991F880F9C
S11309B0991FE80FF91FE851F14FA181B2811296F6
S11309C00D90BC91A02DB283A183CF010396A817EB
S11309D0B90731F412968D919C9113979283818378
S11309E00180F281E02D868197819093F20E8093AD
S11309F0F10E0895DC0101C06D9341505040E0F7C1
S1130A000895FB01DC014150504048F001900D92E3
S1130A100020C9F701C01D9241505040E0F70895ED
S1070A20F894FFCF74
S1130A24FFFF4C4F4E004C4F46460049444C450092
S9030000FC
